{
  "contractName": "tcg",
  "abi": [
    {
      "inputs": [],
      "stateMutability": "nonpayable",
      "type": "constructor"
    },
    {
      "anonymous": false,
      "inputs": [
        {
          "indexed": false,
          "internalType": "uint256",
          "name": "id",
          "type": "uint256"
        },
        {
          "indexed": false,
          "internalType": "string",
          "name": "name",
          "type": "string"
        },
        {
          "indexed": false,
          "internalType": "string",
          "name": "desc",
          "type": "string"
        },
        {
          "indexed": false,
          "internalType": "uint256",
          "name": "createPrice",
          "type": "uint256"
        },
        {
          "indexed": false,
          "internalType": "address",
          "name": "owner",
          "type": "address"
        }
      ],
      "name": "CardCreated",
      "type": "event"
    },
    {
      "anonymous": false,
      "inputs": [
        {
          "indexed": false,
          "internalType": "address",
          "name": "_from",
          "type": "address"
        },
        {
          "indexed": false,
          "internalType": "address",
          "name": "_to",
          "type": "address"
        },
        {
          "indexed": false,
          "internalType": "uint256",
          "name": "cardId",
          "type": "uint256"
        }
      ],
      "name": "Transfer",
      "type": "event"
    },
    {
      "inputs": [],
      "name": "numCards",
      "outputs": [
        {
          "internalType": "uint256",
          "name": "",
          "type": "uint256"
        }
      ],
      "stateMutability": "view",
      "type": "function",
      "constant": true
    },
    {
      "inputs": [
        {
          "internalType": "string",
          "name": "_name",
          "type": "string"
        },
        {
          "internalType": "string",
          "name": "_desc",
          "type": "string"
        },
        {
          "internalType": "uint256",
          "name": "_price",
          "type": "uint256"
        }
      ],
      "name": "createCard",
      "outputs": [],
      "stateMutability": "payable",
      "type": "function",
      "payable": true
    }
  ],
  "bytecode": "0x60806040526000805534801561001457600080fd5b50610aa9806100246000396000f3fe6080604052600436106100295760003560e01c806332d1deaf1461002e5780634c47eeaf14610059575b600080fd5b34801561003a57600080fd5b50610043610075565b60405161005091906106f4565b60405180910390f35b610073600480360381019061006e9190610555565b61007b565b005b60005481565b803373ffffffffffffffffffffffffffffffffffffffff163110156100d5576040517f08c379a00000000000000000000000000000000000000000000000000000000081526004016100cc906106b4565b60405180910390fd5b6000808154809291906100e7906108c3565b91905055506040518060a00160405280600054815260200184815260200183815260200182815260200160011515815250600160008054815260200190815260200160002060008201518160000155602082015181600101908051906020019061015292919061042d565b50604082015181600201908051906020019061016f92919061042d565b506060820151816003015560808201518160040160006101000a81548160ff0219169083151502179055509050506101ab60003360005461023e565b60003390508073ffffffffffffffffffffffffffffffffffffffff166108fc839081150290604051600060405180830381858888f193505050501580156101f6573d6000803e3d6000fd5b507f164ea53b1937f6eb1d288c69da1cf104bbf253cb4b98726a546aa69c32a040666000548585853360405161023095949392919061070f565b60405180910390a150505050565b600073ffffffffffffffffffffffffffffffffffffffff168273ffffffffffffffffffffffffffffffffffffffff16141561027857600080fd5b3073ffffffffffffffffffffffffffffffffffffffff168273ffffffffffffffffffffffffffffffffffffffff1614156102b157600080fd5b600073ffffffffffffffffffffffffffffffffffffffff168373ffffffffffffffffffffffffffffffffffffffff161461032f576102ef83826103c1565b61032e576040517f08c379a0000000000000000000000000000000000000000000000000000000008152600401610325906106d4565b60405180910390fd5b5b816002600083815260200190815260200160002060006101000a81548173ffffffffffffffffffffffffffffffffffffffff021916908373ffffffffffffffffffffffffffffffffffffffff1602179055507fddf252ad1be2c89b69c2b068fc378daa952ba7f163c4a11628f55a4df523b3ef8383836040516103b49392919061067d565b60405180910390a1505050565b60008273ffffffffffffffffffffffffffffffffffffffff166002600084815260200190815260200160002060009054906101000a900473ffffffffffffffffffffffffffffffffffffffff1673ffffffffffffffffffffffffffffffffffffffff1614905092915050565b82805461043990610860565b90600052602060002090601f01602090048101928261045b57600085556104a2565b82601f1061047457805160ff19168380011785556104a2565b828001600101855582156104a2579182015b828111156104a1578251825591602001919060010190610486565b5b5090506104af91906104b3565b5090565b5b808211156104cc5760008160009055506001016104b4565b5090565b60006104e36104de84610795565b610770565b9050828152602081018484840111156104ff576104fe61099e565b5b61050a84828561081e565b509392505050565b600082601f83011261052757610526610999565b5b81356105378482602086016104d0565b91505092915050565b60008135905061054f81610a5c565b92915050565b60008060006060848603121561056e5761056d6109a8565b5b600084013567ffffffffffffffff81111561058c5761058b6109a3565b5b61059886828701610512565b935050602084013567ffffffffffffffff8111156105b9576105b86109a3565b5b6105c586828701610512565b92505060406105d686828701610540565b9150509250925092565b6105e9816107e2565b82525050565b60006105fa826107c6565b61060481856107d1565b935061061481856020860161082d565b61061d816109ad565b840191505092915050565b60006106356022836107d1565b9150610640826109be565b604082019050919050565b60006106586026836107d1565b915061066382610a0d565b604082019050919050565b61067781610814565b82525050565b600060608201905061069260008301866105e0565b61069f60208301856105e0565b6106ac604083018461066e565b949350505050565b600060208201905081810360008301526106cd81610628565b9050919050565b600060208201905081810360008301526106ed8161064b565b9050919050565b6000602082019050610709600083018461066e565b92915050565b600060a082019050610724600083018861066e565b818103602083015261073681876105ef565b9050818103604083015261074a81866105ef565b9050610759606083018561066e565b61076660808301846105e0565b9695505050505050565b600061077a61078b565b90506107868282610892565b919050565b6000604051905090565b600067ffffffffffffffff8211156107b0576107af61096a565b5b6107b9826109ad565b9050602081019050919050565b600081519050919050565b600082825260208201905092915050565b60006107ed826107f4565b9050919050565b600073ffffffffffffffffffffffffffffffffffffffff82169050919050565b6000819050919050565b82818337600083830152505050565b60005b8381101561084b578082015181840152602081019050610830565b8381111561085a576000848401525b50505050565b6000600282049050600182168061087857607f821691505b6020821081141561088c5761088b61093b565b5b50919050565b61089b826109ad565b810181811067ffffffffffffffff821117156108ba576108b961096a565b5b80604052505050565b60006108ce82610814565b91507fffffffffffffffffffffffffffffffffffffffffffffffffffffffffffffffff8214156109015761090061090c565b5b600182019050919050565b7f4e487b7100000000000000000000000000000000000000000000000000000000600052601160045260246000fd5b7f4e487b7100000000000000000000000000000000000000000000000000000000600052602260045260246000fd5b7f4e487b7100000000000000000000000000000000000000000000000000000000600052604160045260246000fd5b600080fd5b600080fd5b600080fd5b600080fd5b6000601f19601f8301169050919050565b7f496e73756666696369656e742066756e647320746f206372656174652063617260008201527f6421000000000000000000000000000000000000000000000000000000000000602082015250565b7f53656e64657220646f6573206e6f742068617665206f776e657273686970206f60008201527f6620636172640000000000000000000000000000000000000000000000000000602082015250565b610a6581610814565b8114610a7057600080fd5b5056fea264697066735822122043d56bf4f5bf56d27371a9cc8bf5829c38d4a28e2cf41b7d664c390c592e652e64736f6c63430008070033",
  "immutableReferences": {},
  "source": "pragma solidity >=0.8.0;\n\nimport \"@openzeppelin/contracts/token/ERC721/ERC721.sol\";\n\ncontract Ownable {\n    address public owner;\n\n    constructor() public {\n        owner = msg.sender;\n    }\n\n    modifier onlyOwner {\n        require(msg.sender == owner);\n        _;\n    }\n\n    function transferOwnership(address newOwner) onlyOwner public {\n        if(newOwner != address(0)) {\n            owner = newOwner;\n        }\n    }\n}\n\ncontract tcg {\n    /* Attributes of a card.\n    A card contains,\n    - id: unique id (uint)\n    - Name\n    - Description \n\n    All cards can only exist one copy.\n\n    Feature to be added later\n    - Exclusivity: number of limited supply of a given card*/\n\n    // word count limitations for name and desc of card\n    uint constant NAME_LIMIT = 10; \n    uint constant DESC_LIMIT = 30;\n    // number of all cards existing on contract\n    uint public numCards = 0;\n    // Mapping of all cards\n    mapping(uint => Card) cards;\n    // A mapping of owned cards\n    mapping(uint => address) ownershipToCard;\n\n    struct Card {\n        uint id;\n        string name;\n        string desc;\n        uint createPrice;\n        bool owned;\n        //uint excl;\n    }\n\n    event CardCreated(\n        uint id,\n        string name,\n        string desc,\n        uint createPrice,\n        address owner\n    );\n    // uint excl\n\n    event Transfer(\n        address _from,\n        address _to,\n        uint cardId\n    );\n\n    \n\n    constructor() public {\n    }\n\n\n    // allows users to create new cards, however costing \n    // should probably have some algo to determine price of card (either custom or automatic) - custom for now.\n    function createCard(string memory _name, string memory _desc, uint _price)  public payable {\n        require(msg.sender.balance >= _price, \"Insufficient funds to create card!\");\n        \n        numCards++;\n        cards[numCards] = Card(numCards, _name, _desc,_price,true);\n\n        _transfer(address(0), msg.sender, numCards);\n\n        // charge user's eth account\n        address payable owner = payable(msg.sender);\n        owner.transfer(_price);\n\n        emit CardCreated(numCards, _name, _desc,_price,msg.sender);\n    }\n\n    // Function to buy card off the market (pool of cards owned by the contract)\n    // not owned by any USERS.\n\n    // function _buyCard(uint _id) public {\n    //     require(_cardExists(_id), \"ID not issued to any exisiting card\");\n    //     require(cards[_id].owned == false, \"Owned card selected.\");\n    //     require(msg.sender.balance >= cards[_id].price, \"Insufficient funds to create card!\");\n        \n    //     msg.sender.send(uint price);\n    // }\n\n    // returns the price of card dependent on the total supply and weight of card\n    // i.e., the length of both name and description of card\n    // - String manipulations/operations are very costly in solidity and smart contracts\n    // therefore, it might be better to include the logic of calculating the price in the DAPP side\n    // and padd in the price into buycard function.\n    \n    // function _calcPrice(uint _id) internal returns (uint){      \n    //     return tx.gasprice*(cards[_id].)\n    // }\n\n    function _transfer(address _from, address _to, uint _cardId) internal {\n        // Destination address should not be...\n        // safe guard against zero-address\n        require(_to!=address(0));\n        // For now, the contract cannot hold any cards (can add market feature in future)\n        require(_to!=address(this));\n        // sender must own card\n        if(_from!=address(0)) {\n            require(_owns(_from, _cardId), \"Sender does not have ownership of card\");\n        }\n        ownershipToCard[_cardId] = _to;\n\n        emit Transfer(_from, _to, _cardId);\n    }\n\n    function _cardExists(uint _id) internal view returns (bool){\n        return cards[_id].id != 0;\n    }\n\n    function _owns(address _claimant, uint _cardId) internal view returns (bool){\n        return ownershipToCard[_cardId] == _claimant;\n    }\n}\n/*sidenote: for a function to actually withdraw/fund ether to an address,\nthe payable modifier has to set otherwise the transaction will be rejected\n*/",
  "sourcePath": "/Users/nagaikeigo/Documents/tcg/contracts/tcg.sol",
  "compiler": {
    "name": "solc",
    "version": "0.8.7+commit.e28d00a7.Emscripten.clang"
  },
  "schemaVersion": "3.4.3",
  "updatedAt": "2021-09-24T02:52:40.789Z",
  "networkType": "ethereum",
  "devdoc": {
    "kind": "dev",
    "methods": {},
    "version": 1
  },
  "userdoc": {
    "kind": "user",
    "methods": {},
    "version": 1
  }
}